:020000020000FC
:100000002DD0CFD0C5D0442733271ED1CED073D02A
:100010005A3239F0543441F0533249F05334A9F094
:1000200017C0242E4427F1CF342E4427EECF1124BD
:10003000442E239C012D003031F407FC04C0502CC9
:1000400054185DD0E2CF1FEFFACF309558D0DDCFF6
:100050000AE0409F402D5053450FD7CF0FEF00BB14
:1000600001B9002701BB02B908E319D032D0E0D0B2
:1000700008E315D02ED0D3D008E311D02AD008E35E
:100080000ED027D008E00BD024D001E008D021D03A
:1000900006E005D01ED00EE002D01BD0089501BBB3
:1000A0000000169A000000000000169800000000F2
:1000B0000000089501BB179A000000000000169A86
:1000C00000000000000016980000000000001798D3
:1000D00008950F93002700BB159A0000169A0000A0
:1000E000000000000FB1169807FDF7CF15980FEF2D
:1000F00000BB0F910895052FDDDFEBDF089501E0D0
:10010000CEDFE7DF0F931F932F93DF93152DDD27AE
:100110003F3F49F057FC1BD004E620D00AE01ED038
:1001200001E01CD00DC000E3C5DFD3DF08E7C2DF6C
:10013000D0DF57FC0CD000E111D001E00FD000C09F
:10014000DF912F911F910F9110FD27D008950DE29F
:10015000B1DFBFDF1095139516B9089520E0101791
:100160001AF0101B2395FBCF203081F4D0FD01D075
:1001700008952A302CF4205D022F9CDFAADF089519
:100180002A502F5B022F96DFA4DF0895D1E0EECF37
:100190000FEF07B9000F08B90895A094A8B85AD076
:1001A000FCCFA0EFA0930A0108959FEE772774304B
:1001B000E1F390930B013CD0A0910901AF70AF30F7
:1001C00059F081E06627643039F0BA2FB82341F046
:1001D0006395880F0C94E300990F73950C94D700E6
:1001E000733051F0633061F0A62FAA0FA60FA70F4E
:1001F000AF5FA05D0C940B01A1E4A60F0C940B0162
:10020000703029F0713031F0A3E20C940B01AAE2B6
:100210000C940B01A0E3A8B95A2F16D008958F9320
:100220009F939FE08CE90197F1F79F918F9108953B
:10023000F6DFF5DFF4DFF3DFF2DF0895F9DFF8DF53
:10024000F7DFF6DFF5DF0895F9DFF8DFF7DFF6DF38
:10025000F5DF0895F9DFF8DFF7DFF6DFF5DF089562
:00000001FF
