:020000020000FC
:020000002FC00F
:10005C000C9433000FEF07B929C00F930FB70F9310
:10006C00DF93CF939F938F93C2E0D2E089919881D5
:10007C000196883E89F4933079F4109518B9C2E052
:10008C00D2E0002709930883C0E0D2E089919881DF
:10009C00019698838A9302C098838A938F919F913B
:1000AC00CF91DF910F910FBF0F9118951FEF18B9DA
:1000BC0010EFC2E0D2E0002709930883C0E0D2E041
:1000CC0000270993088300E004BD03E005BD01E0AF
:1000DC0000936E007894FFCF8F939F939FE08CE9F1
:1000EC000197F1F79F918F910895F6DFF5DFF4DF1B
:1000FC00F3DFF2DF0895F9DFF8DFF7DFF6DFF5DF86
:10010C000895F9DFF8DFF7DFF6DFF5DF0895F9DFA3
:0A011C00F8DFF7DFF6DFF5DF0895E6
:00000001FF
