:020000020000FC
:0200000005C039
:100004000C9416000C9421000FEF07B908B91FE0F7
:1000140002E00AB90BB90AE0009369000DB303606A
:100024000DBB78940C942D000F930FB70F9310957C
:1000340018B9239534D00F910FBF0F9118950F93D2
:100044000FB70F931FEF18B92AD01FE0599A0F91D9
:100054000FBF0F911895222700270395253009F02B
:10006400FCCF59982227F9CF8F939F939FE08CE977
:100074000197F1F79F918F910895F6DFF5DFF4DF93
:10008400F3DFF2DF0895F9DFF8DFF7DFF6DFF5DFFE
:100094000895F9DFF8DFF7DFF6DFF5DF0895F9DF1C
:0A00A400F8DFF7DFF6DFF5DF08955F
:00000001FF
