:020000020000FC
:020000002FC00F
:10005C000C948400CF93DF930F938F939F93C0E006
:10006C00D2E00027099308839F918F910F91DF9124
:10007C00CF91CF93DF930F938F939F93C2E0D2E0F6
:10008C000027099308839F918F910F91DF91CF9156
:10009C00CF93DF930F938F939F93C4E0D2E000270D
:1000AC00099308839F918F910F91DF91CF91F6D097
:1000BC006FD1E3D10F9302E5A7D1B5D10F910F9377
:1000CC0005E4A2D1B0D10F910F9303E59DD1ABD133
:1000DC000F910F9304E598D1A6D10F910F9301E4E2
:1000EC0093D1A1D10F910F9302E58ED19CD10F9199
:1000FC000F9304E589D197D10F9159C00F930FB786
:10010C000F93CF93DF930F938F939F93C0E0D2E025
:10011C0089919881019698838A939F918F910F91E1
:10012C00DF91CF91CF93DF930F938F939F93C0E089
:10013C00D2E089919881883E89F5933079F5CF93F7
:10014C00DF930F938F939F93C2E0D2E089919881B4
:10015C00019698838A939F918F910F91DF91CF9104
:10016C00CF93DF930F938F939F93C2E0D2E088815C
:10017C0088B99F918F910F91DF91CF9198D0CF93A8
:10018C00DF930F938F939F93C0E0D2E000270993E6
:10019C0008839F918F910F91DF91CF919F918F91B8
:1001AC000F91DF91CF910F910FBF0F9118950FEF1A
:1001BC0007B90AEA08B900270AB90FEF0BB90F9370
:1001CC004F935F936F937F938F939F930027442755
:1001DC00552766277727882799277FEE5527543090
:1001EC00A9F370930B01BCD0809109018F708F30F3
:1001FC0059F061E04427443039F0982F962341F0B0
:10020C004395660F0C940101770F53950C94F500F0
:10021C00533051F0433061F0842F880F840F850FD9
:10022C008F5F805D0C94290181E4840F0C9429016B
:10023C00503029F0513031F083E20C9429018AE2DC
:10024C000C94290180E3082F97D0C4E0D2E00883F6
:10025C000F919F918F917F916F915F914F910F9320
:10026C0001E0C7D0E0D00F910F9302E0C2D0DBD0F9
:10027C000F91CF93DF930F938F939F93C4E0D2E0B2
:10028C0088810F93082FC0D0CED00F919F918F9162
:10029C000F91DF91CF9149D092CFFFCF00E004BDF9
:1002AC0003E005BD01E000936E00789408950F9370
:1002BC0001E09FD0B8D00F910F9302E09AD0B3D049
:1002CC000F91DF93CF930F938F939F93AF93BF9324
:1002DC000027AA27BB27C2E0D2E0899198819923F5
:1002EC0011F48A3018F00A971196F9CF8F93039571
:1002FC00CD01AA27BB279923B1F78A3008F0F3CF99
:10030C008F930395003049F08F910A95805D0F9380
:10031C00082F7AD088D00F91F5CFBF91AF919F91D4
:10032C008F910F91CF91DF910895CF93DF930F931E
:10033C008F939F93C4E0D2E00881C2E0D2E00053D7
:10034C0008839F918F910F91DF91CF9108958F9397
:10035C009F939FE08CE90197F1F79F918F910895FE
:10036C00F6DFF5DFF4DFF3DFF2DF0895F9DFF8DF16
:10037C00F7DFF6DFF5DF0895F9DFF8DFF7DFF6DFFB
:10038C00F5DF0895F9DFF8DFF7DFF6DFF5DF089525
:10039C000FEF00BB01B9002701BB02B90F9308E3B3
:1003AC0028D041D00F91DCDF0F9308E322D03BD053
:1003BC000F91CDDF0F9308E31CD035D00F910F9325
:1003CC0008E317D030D00F910F9308E012D02BD048
:1003DC000F910F9301E00DD026D00F910F9306E0F3
:1003EC0008D021D00F910F930EE003D01CD00F91A9
:1003FC00089501BB0000169A00000000000016983A
:10040C00000000000000089501BB179A00000000D6
:10041C000000169A00000000000016980000000072
:10042C000000179808950F93002700BB159A000041
:10043C00169A0000000000000FB1169807FDF7CFC8
:10044C0015980FEF00BB0F9108950F932F9304E6AF
:10045C0007D00AE005D001E003D02F910F91089549
:10046C0020E010171AF0101B2395FBCF205D0F9383
:10047C00022FCADFD8DF0F9108958F9380EF8093FE
:06048C000A018F910895A2
:00000001FF
