:020000020000FC
:020000002FC00F
:10005C000C945000CF93DF930F938F939F93C0E03A
:10006C00D2E00027099308839F918F910F91DF9124
:10007C00CF91CF93DF930F938F939F93C2E0D2E0F6
:10008C000027099308839F918F910F91DF91CF9156
:10009C0064D059C00F930FB70F93CF93DF930F9387
:1000AC008F939F93C0E0D2E08991988101969883B9
:1000BC008A939F918F910F91DF91CF91CF93DF9383
:1000CC000F938F939F93C0E0D2E089919881883EE3
:1000DC0089F5933079F5CF93DF930F938F939F939B
:1000EC00C2E0D2E089919881019698838A939F917E
:1000FC008F910F91DF91CF91CF93DF930F938F93CC
:10010C009F93C2E0D2E0888188B99F918F910F9123
:10011C00DF91CF912BD0CF93DF930F938F939F933E
:10012C00C0E0D2E00027099308839F918F910F9133
:10013C00DF91CF919F918F910F91DF91CF910F9183
:10014C000FBF0F91189571D00FEF07B90FEF08B9CA
:10015C0000270AB90FEF0BB9FFCF00E004BD03E095
:10016C0005BD01E000936E00789408950F9301E0B3
:10017C008DD0A6D00F910F9302E088D0A1D00F9113
:10018C00DF93CF930F938F939F93AF93BF930027DE
:10019C00AA27BB27C2E0D2E089919881992311F458
:1001AC008A3018F00A971196F9CF8F930395CD01E9
:1001BC00AA27BB279923B1F78A3008F0F3CF8F9386
:1001CC000395003049F08F910A95805D0F93082FAD
:1001DC0068D076D00F91F5CFBF91AF919F918F9151
:1001EC000F91CF91DF9108958F939F939FE08CE9AE
:1001FC000197F1F79F918F910895F6DFF5DFF4DF0A
:10020C00F3DFF2DF0895F9DFF8DFF7DFF6DFF5DF74
:10021C000895F9DFF8DFF7DFF6DFF5DF0895F9DF92
:10022C00F8DFF7DFF6DFF5DF08950FEF00BB01B95C
:10023C00002701BB02B90F9308E328D041D00F91DE
:10024C00DCDF0F9308E322D03BD00F91CDDF0F936F
:10025C0008E31CD035D00F910F9308E317D030D0A2
:10026C000F910F9308E012D02BD00F910F9301E058
:10027C000DD026D00F910F9306E008D021D00F910E
:10028C000F930EE003D01CD00F91089501BB00001A
:10029C00169A0000000000001698000000000000F4
:1002AC00089501BB179A000000000000169A000088
:1002BC000000000016980000000000001798089538
:1002CC000F93002700BB159A0000169A000000003F
:1002DC0000000FB1169807FDF7CF15980FEF00BB74
:1002EC000F9108950F932F9304E607D00AE005D0E1
:1002FC0001E003D02F910F91089520E010171AF010
:10030C00101B2395FBCF205D0F93022FCADFD8DF84
:10031C000F9108958F9380EF80930A018F91089528
:10032C003AD07FEE55275430D9F370930B0165DF2B
:10033C00809109018F708F3059F061E0442744306F
:10034C0039F0982F962341F04395660F0C94A50134
:10035C00770F53950C949901533051F0433061F061
:10036C00842F880F840F850F8F5F805D0C94CD01D7
:10037C0081E4840F0C94CD01503029F0513031F0D0
:10038C0083E20C94CD018AE20C94CD0180E3082F1A
:10039C0040DF08D008954F935F936F937F938F93B3
:1003AC009F9308959F918F917F916F915F914F9142
:0203BC000895A2
:00000001FF
