:020000020000FC
:10000000CEC0CF93DF93EF93FF930F931F938F9304
:100010009F93C0E0D2E0E2E0FCE0C193D083E0E057
:10002000FCE02A96C193D083E4E0FCE0C193D08346
:10003000CF93DF930F938F939F93C7E0DCE000276C
:1000400008839F918F910F91DF91CF91CF93DF9391
:100050000F938F939F93C6E0DCE0002708839F9166
:100060008F910F91DF91CF91CF93DF930F938F9368
:100070009F93C6E0DCE00881039508839F918F91F0
:100080000F91DF91CF919F918F911F910F91FF91D0
:10009000EF91DF91CF910895CF93DF93EF93FF938B
:1000A0000F931F938F939F930AE0003051F1E8E084
:1000B000FCE01191C4E0DCE018830A95CF93DF9354
:1000C0000F938F939F93C2E0DCE089919881019612
:1000D00098838A939F918F910F91DF91CF91CF93C6
:1000E000DF930F938F939F93C4E0DCE08991988115
:1000F000019698838A939F918F910F91DF91CF9171
:10010000D4CFCF93DF930F938F939F93C7E0DCE01F
:100110000881039508839F918F910F91DF91CF9173
:100120009F918F911F910F91FF91EF91DF91CF914F
:100130000895CF93DF93EF93FF930F931F938F93C4
:100140009F930AE0003099F00A95CF93DF930F93C5
:100150008F939F93C0E0DCE089919881019698830A
:100160008A939F918F910F91DF91CF91EBCFCF9396
:10017000DF930F938F939F93C6E0DCE00881039594
:1001800008839F918F910F91DF91CF919F918F91D4
:100190001F910F91FF91EF91DF91CF91089531DF82
:0401A0007BDFC7DF5B
:00000001FF
