:020000020000FC
:02000000E7C354
:020004000CC42A
:0200080027C40B
:10005C000C9436048F939F939FE08CE90197F1F7F2
:10006C009F918F910895F6DFF5DFF4DFF3DFF2DF78
:10007C000895F9DFF8DFF7DFF6DFF5DF0895F9DF34
:10008C00F8DFF7DFF6DFF5DF0895F9DFF8DFF7DFEC
:10009C00F6DFF5DF0895F3DFF2DFF1DFF0DF08952F
:1000AC00FADFF9DF0895FCDFFBDF08958F9380EF13
:1000BC0080930A018F9108950F931F934F936F9321
:1000CC007F938F939F9300271127442766277727C9
:1000DC00882799277FEE55275430A9F370930B018D
:1000EC00C2DF109109011F701F3059F061E04427E5
:1000FC00443039F0212F262341F04395660F0C94A0
:10010C007E00770F53950C947200533051F04330AE
:10011C0061F0142F110F140F150F1F5F105D0C944D
:10012C00A60011E4140F0C94A600503029F05130A5
:10013C0031F013E20C94A6001AE20C94A60010E322
:10014C00512F9DDF9F918F917F916F914F911F91B7
:10015C000F9108950FEF00BB01B9002701BB02B945
:10016C000F9308E356D06FD00F917DDF0F9308E308
:10017C0050D069D00F916EDF0F9308E34AD063D053
:10018C000F910F9308E345D05ED00F910F9308E0C9
:10019C0040D059D00F910F9301E03BD054D00F9128
:1001AC000F9306E036D04FD00F910F930EE031D065
:1001BC004AD00F910F9302E537D045D00F910F9392
:1001CC0005E432D040D00F910F9303E52DD03BD0F6
:1001DC000F910F9304E528D036D00F910F9301E4C3
:1001EC0023D031D00F910F9302E51ED02CD00F915C
:1001FC000F9304E519D027D00F914DDF0F9301E039
:10020C0008D021D00F910F9302E003D01CD00F9196
:10021C00089501BB0000169A00000000000016981B
:10022C00000000000000089501BB179A00000000B8
:10023C000000169A00000000000016980000000054
:10024C000000179808950F93002700BB159A000023
:10025C00169A0000000000000FB1169807FDF7CFAA
:10026C0015980FEF00BB0F9108950F932F9304E691
:10027C0007D00AE005D001E003D02F910F9108952B
:10028C0020E010171AF0101B2395FBCF205D0F9365
:10029C00022FCADFD8DF0F910895CF93DF93EF932E
:1002AC00FF930F931F932F933F938F939F93C4E1CF
:1002BC00D2E0E6E1FCE0C193D083E4E1FCE02A96D5
:1002CC00C193D083E8E1FCE0C193D083CF93DF935B
:1002DC000F938F939F93CBE1DCE0002708839F91D2
:1002EC008F910F91DF91CF91CF93DF930F938F93DA
:1002FC009F93CAE1DCE0002708839F918F910F91B7
:10030C00DF91CF91CF93DF930F938F939F93CAE19C
:10031C00DCE00881039508839F918F910F91DF9109
:10032C00CF919F918F913F912F911F910F91FF91A1
:10033C00EF91DF91CF910895CF93DF93EF93FF93DC
:10034C000F931F932F933F938F939F930AE0C8E1D2
:10035C00DCE029913881C22FD32FEAE0F2E00030A3
:10036C0011F1119119930A95CF93DF930F938F93FA
:10037C009F93C6E1DCE00881039508839F918F91E0
:10038C000F91DF91CF91CF93DF930F938F939F9327
:10039C00C8E1DCE00881039508839F918F910F9150
:1003AC00DF91CF91DCCFCF93DF930F938F939F93FC
:1003BC00CBE1DCE00881039508839F918F910F912D
:1003CC00DF91CF919F918F913F912F911F910F9121
:1003DC00FF91EF91DF91CF910895CF93DF93EF933E
:1003EC00FF930F931F932F933F938F939F930AE049
:1003FC00003089F00A95CF93DF930F938F939F93DF
:10040C00C4E1DCE00881039508839F918F910F91E3
:10041C00DF91CF91EDCFCF93DF930F938F939F937A
:10042C00CAE1DCE00881039508839F918F910F91BD
:10043C00DF91CF919F918F913F912F911F910F91B0
:10044C00FF91EF91DF91CF9108950F931F932F930D
:10045C003F934F935F936F937F938F939F93EF9300
:10046C00FF930F9301E0D5DEEEDE0F910F9302E0C8
:10047C00D0DEE9DE0F91EF93FF930F93E2E8F7E004
:10048C000591003031F00F93002FCEDEDCDE0F91A2
:10049C00F7CF0F91FF91EF910F9300ECBADED3DE03
:1004AC000F91E4E1FCE001911081E02FF12F1AE0B3
:1004BC0001910F93002FB8DEC6DE0F911A95C1F78C
:1004CC0013E0103041F000E20F93002FADDEBBDEE5
:1004DC000F911A95F6CF000010911A0CC6DEFF9101
:1004EC00EF919F918F917F916F915F914F913F9180
:1004FC002F911F910F9108950F931F932F933F935B
:10050C004F935F936F937F938F939F93EF93FF938F
:10051C000F9301E07EDE97DE0F910F9302E079DE00
:10052C0092DE0F91EF93FF930F93E2E7F7E00591C3
:10053C00003031F00F93002F77DE85DE0F91F7CF6F
:10054C000F91FF91EF910F9300EC63DE7CDE0F9126
:10055C00E6E1FCE001911081E02FF12F1AE001910E
:10056C000F93002F61DE6FDE0F911A95C1F713E028
:10057C00103041F000E20F93002F56DE64DE0F9135
:10058C001A95F6CF000010911B0C6FDEFF91EF91C6
:10059C009F918F917F916F915F914F913F912F918F
:1005AC001F910F9108950F931F932F933F934F9388
:1005BC005F936F937F938F939F93AF93BF93EF93BF
:1005CC00FF93CF93DF930F9301E023DE3CDE0F917B
:1005DC000F9302E01EDE37DE0F91EF93FF930F9324
:1005EC00E6E6F7E00591003031F00F93002F1CDEAA
:1005FC002ADE0F91F7CF0F91FF91EF910F9300EC43
:10060C0008DE21DE0F91662777278827C0E0D2E02D
:10061C001AE020E229931A95E1F7CAE0D2E01AE039
:10062C0020E229931A95E1F7112746DD523368F140
:10063C005A3358F5571719F0752F882708C000EC56
:10064C00060F0F93002FE5DDFEDD0F918395252F0F
:10065C002253220FE0E9F7E01124E20FF11D15916E
:10066C002491E12FF22FEE0FFF1F3491831708F026
:10067C008827482F31963196E40FF11D94910F93F2
:10068C00092FD2DDE0DD0F91D0CF5332F1F054348D
:10069C0029F1533419F0523419F0C7CF0C94D90204
:1006AC006A9500EC060F0F93002FB3DDCCDD0F9194
:1006BC000F9300E2B9DDC7DD0F9100EC060F0F932D
:1006CC00002FA7DDC0DD0F91B0CFC0E0D2E0C60F88
:1006DC00D11D9883639577278827A7CFE0E0F2E0B8
:1006EC00CAE0D2E0162F219129931A95E1F70F93C6
:1006FC0001E08FDDA8DD0F910F9302E08ADDA3DD11
:10070C000F91EF93FF930F93E2E7F7E00591003021
:10071C0031F00F93002F88DD96DD0F91F7CF0F91FD
:10072C00FF91EF910F9300EC74DD8DDD0F9104DEE2
:10073C00E3DEC2DC5434E9F7DF91CF91FF91EF9106
:10074C00BF91AF919F918F917F916F915F914F91DD
:10075C003F912F911F910F910895456E74657220F2
:10076C004E616D653A00596F7572204E756D6265FC
:10077C00722049733A004E65787420506174696533
:10078C006E743A00D003D303D603D903DC03DF0322
:10079C00E203E503030041424300030044454600E5
:1007AC0003004748490003004A4B4C0003004D4EE0
:1007BC004F0004005051525303005455560004008E
:1007CC005758595ACF93DF930F938F939F93CCE144
:1007DC00DCE00027099308839F918F910F91DF91A3
:1007EC00CF91CF93DF930F938F939F93CEE1DCE068
:1007FC000027099308839F918F910F91DF91CF91DF
:10080C008DD054DCA7DC49DD0FEF07B90AEA08B933
:10081C007FC035DC0F930FB70F9308E0009369008E
:10082C000DB302600DBB11DE00270AB90FEF0BB937
:10083C00499B01C0FDCF23DCD0DD07DEF9CF0DB322
:10084C0000600DBB0F910FBF0F91189518DC0F9323
:10085C000FB70F93C2DDF9DD0F910FBF0F911895F4
:10086C000F930FB70F93CF93DF930F938F939F93A8
:10087C00CCE1DCE089919881019698838A939F91D1
:10088C008F910F91DF91CF91CF93DF930F938F9334
:10089C009F93CCE1DCE089919881883E81F593307F
:1008AC0071F5CF93DF930F938F939F93CEE1DCE0A1
:1008BC0089919881019698838A939F918F910F913A
:1008CC00DF91CF91CF93DF930F938F939F93CEE1D3
:1008DC00DCE0888188B99F918F910F91DF91CF9146
:1008EC00CF93DF930F938F939F93CCE1DCE00027A2
:1008FC00099308839F918F910F91DF91CF919F91D5
:10090C008F910F91DF91CF910F910FBF0F91189590
:10091C009CDDD2DB5134E1F746DEFACF00E004BDBA
:10092C0003E005BD01E000936E0002E00093690056
:0A093C000DB301600DBB789408951F
:00000001FF
