:020000020000FC
:100000002ED081D043C18F939F939FE08CE90197BD
:10001000F1F79F918F910895F6DFF5DFF4DFF3DFBD
:10002000F2DF0895F9DFF8DFF7DFF6DFF5DF089597
:10003000F9DFF8DFF7DFF6DFF5DF0895F9DFF8DF46
:10004000F7DFF6DFF5DF0895F3DFF2DFF1DFF0DF52
:100050000895FADFF9DF0895FCDFFBDF08958F9341
:1000600080EF80930A018F9108950F931F934F9310
:100070006F937F938F939F930027112744276627C1
:100080007727882799277FEE55275430A9F3709357
:100090000B01C2DF109109011F701F3059F061E0A0
:1000A0004427443039F0212F262341F04395660F31
:1000B0000C945100770F53950C944500533051F038
:1000C000433061F0142F110F140F150F1F5F105DD7
:1000D0000C94790011E4140F0C947900503029F03D
:1000E000513031F013E20C9479001AE20C9479004B
:1000F00010E3512F9DDF9F918F917F916F914F91D1
:100100001F910F9108950FEF00BB01B9002701BBAC
:1001100002B90F9308E356D06FD00F917DDF0F9394
:1001200008E350D069D00F916EDF0F9308E34AD0F7
:1001300063D00F910F9308E345D05ED00F910F93DA
:1001400008E040D059D00F910F9301E03BD054D03C
:100150000F910F9306E036D04FD00F910F930EE022
:1001600031D04AD00F910F9302E537D045D00F918F
:100170000F9305E432D040D00F910F9303E52DD0BB
:100180003BD00F910F9304E528D036D00F910F93F9
:1001900001E423D031D00F910F9302E51ED02CD073
:1001A0000F910F9304E519D027D00F9152DF0F93D1
:1001B00001E008D021D00F910F9300E803D01CD0AC
:1001C0000F91089501BB0000169A00000000000086
:1001D0001698000000000000089501BB179A000067
:1001E00000000000169A00000000000016980000B1
:1001F00000000000179808950F93002700BB159A80
:100200000000169A0000000000000FB1169807FDCC
:10021000F7CF15980FEF00BB0F9108950F932F9311
:1002200004E607D00AE005D001E003D02F910F913A
:10023000089520E010171AF0101B2395FBCF205DC6
:100240000F93022FCADFD8DF0F9108952E013101DD
:10025000340137013A013D014001430103004142AD
:10026000430003004445460003004748490003009B
:100270004A4B4C0003004D4E4F0004005051525366
:1002800003005455560004005758595A66277727DB
:100290008827C0E0D2E01AE020E229931A95E1F71E
:1002A0001127E3DE523378F15A3368F5571719F006
:1002B000752F88270AC00F9300E8060F0F93002FB1
:1002C00081DF9ADF0F910F918395252F2253220F03
:1002D000ECE4F2E01124E20FF11D15912491E12FDD
:1002E000F22FEE0FFF1F3491831708F08827482F55
:1002F00031963196E40FF11D94910F93092F6DDF24
:100300007BDF0F91CECF533219F0543469F0C9CF4F
:100310006A3038F6C0E0D2E0C60FD11D98836395ED
:10032000772788270CD0BDCFE0E0F2E0CAE0D2E02A
:100330001AE0219129931A95E1F702D0B2CF0895DE
:10034000CF93DF930F938F939F930F9301E03ADF47
:1003500053DF0F910F9300E835DF4EDF0F91CAE0B6
:10036000D2E089910F93082F38DF46DF0F918991F2
:100370000F93082F32DF40DF0F9189910F93082FE1
:100380002CDF3ADF0F9189910F93082F26DF34DF9E
:100390000F9189910F93082F20DF2EDF0F91899104
:1003A0000F93082F1ADF28DF0F919F918F910F91E4
:0603B000DF91CF910895DA
:00000001FF
