:020000020000FC
:100000002FD082D024D1B8C38F939F939FE08CE9E7
:100010000197F1F79F918F910895F6DFF5DFF4DFF7
:10002000F3DFF2DF0895F9DFF8DFF7DFF6DFF5DF62
:100030000895F9DFF8DFF7DFF6DFF5DF0895F9DF80
:10004000F8DFF7DFF6DFF5DF0895F3DFF2DFF1DF4A
:10005000F0DF0895FADFF9DF0895FCDFFBDF089594
:100060008F9380EF80930A018F9108950F931F93D0
:100070004F936F937F938F939F930027112744276C
:1000800066277727882799277FEE55275430A9F3CD
:1000900070930B01C2DF109109011F701F3059F0DE
:1000A00061E04427443039F0212F262341F0439565
:1000B000660F0C945200770F53950C944600533002
:1000C00051F0433061F0142F110F140F150F1F5F03
:1000D000105D0C947A0011E4140F0C947A005030E7
:1000E00029F0513031F013E20C947A001AE20C94AA
:1000F0007A0010E3512F9DDF9F918F917F916F9137
:100100004F911F910F9108950FEF00BB01B9002788
:1001100001BB02B90F9308E356D06FD00F917DDF7A
:100120000F9308E350D069D00F916EDF0F9308E36F
:100130004AD063D00F910F9308E345D05ED00F9162
:100140000F9308E040D059D00F910F9301E03BD0BE
:1001500054D00F910F9306E036D04FD00F910F93EC
:100160000EE031D04AD00F910F9302E537D045D041
:100170000F910F9305E432D040D00F910F9303E518
:100180002DD03BD00F910F9304E528D036D00F919E
:100190000F9301E423D031D00F910F9302E51ED0CD
:1001A0002CD00F910F9304E519D027D00F914DDF7C
:1001B0000F9301E008D021D00F910F9302E003D0FC
:1001C0001CD00F91089501BB0000169A000000009A
:1001D00000001698000000000000089501BB179A67
:1001E000000000000000169A0000000000001698B1
:1001F000000000000000179808950F93002700BB2F
:10020000159A0000169A0000000000000FB1169821
:1002100007FDF7CF15980FEF00BB0F9108950F93CF
:100220002F9304E607D00AE005D001E003D02F9118
:100230000F91089520E010171AF0101B2395FBCFA3
:10024000205D0F93022FCADFD8DF0F910895CF935F
:10025000DF93EF93FF930F931F932F933F938F930E
:100260009F93CAE0D2E0ECE0FCE0C193D083EAE0E7
:10027000FCE02A96C193D083EEE0FCE0C193D083EA
:10028000CF93DF930F938F939F93C1E1DCE000271F
:1002900008839F918F910F91DF91CF91CF93DF933F
:1002A0000F938F939F93C0E1DCE0002708839F9119
:1002B0008F910F91DF91CF91CF93DF930F938F9316
:1002C0009F93C0E1DCE00881039508839F918F91A3
:1002D0000F91DF91CF919F918F913F912F911F911E
:1002E0000F91FF91EF91DF91CF910895CF93DF931D
:1002F000EF93FF930F931F932F933F938F939F93AE
:100300000AE0CEE0DCE029913881C22FD32FE2E170
:10031000FCE0003011F1119119930A95CF93DF930E
:100320000F938F939F93CCE0DCE0088103950883C3
:100330009F918F910F91DF91CF91CF93DF930F9387
:100340008F939F93CEE0DCE00881039508839F9113
:100350008F910F91DF91CF91DCCFCF93DF930F93EC
:100360008F939F93C1E1DCE00881039508839F91FF
:100370008F910F91DF91CF919F918F913F912F910D
:100380001F910F91FF91EF91DF91CF910895CF933E
:10039000DF93EF93FF930F931F932F933F938F93CD
:1003A0009F930AE0003089F00A95CF93DF930F9373
:1003B0008F939F93CAE0DCE00881039508839F91A7
:1003C0008F910F91DF91CF91EDCFCF93DF930F936B
:1003D0008F939F93C0E1DCE00881039508839F9190
:1003E0008F910F91DF91CF919F918F913F912F919D
:1003F0001F910F91FF91EF91DF91CF9108950F938E
:100400001F932F933F934F935F936F937F938F939C
:100410009F93EF93FF930F9301E0D5DEEEDE0F91F4
:100420000F9302E0D0DEE9DE0F91EF93FF930F937D
:10043000EAE2F7E00591003031F00F93002FCEDEB5
:10044000DCDE0F91F7CF0F91FF91EF910F9300EC4E
:10045000BADED3DE0F91EAE0FCE001911081E02FDB
:10046000F12F1AE001910F93002FB8DEC6DE0F9135
:100470001A95C1F713E0103041F000E20F93002FFE
:10048000ADDEBBDE0F911A95F6CF00001091100C77
:10049000C6DEFF91EF919F918F917F916F915F9158
:1004A0004F913F912F911F910F9108950F931F939B
:1004B0002F933F934F935F936F937F938F939F936C
:1004C000EF93FF930F9301E07EDE97DE0F910F9382
:1004D00002E079DE92DE0F91EF93FF930F93EAE152
:1004E000F7E00591003031F00F93002F77DE85DEC5
:1004F0000F91F7CF0F91FF91EF910F9300EC63DE17
:100500007CDE0F91ECE0FCE001911081E02FF12FF7
:100510001AE001910F93002F61DE6FDE0F911A95A3
:10052000C1F713E0103041F000E20F93002F56DEC8
:1005300064DE0F911A95F6CF00001091110C6FDE5A
:10054000FF91EF919F918F917F916F915F914F916B
:100550003F912F911F910F9108950F931F932F9308
:100560003F934F935F936F937F938F939F93AF933B
:10057000BF93EF93FF93CF93DF930F9301E023DEBD
:100580003CDE0F910F9302E01EDE37DE0F91EF93FA
:10059000FF930F93EEE0F7E00591003031F00F93F9
:1005A000002F1CDE2ADE0F91F7CF0F91FF91EF9104
:1005B0000F9300EC08DE21DE0F916627772788274E
:1005C000C0E0D2E01AE020E229931A95E1F7C2E1F7
:1005D000DCE01AE020E229931A95E1F7112746DDC5
:1005E000523368F15A3358F5571719F0752F882789
:1005F00008C000EC060F0F93002FE5DDFEDD0F9124
:100600008395252F2253220FE8E3F7E01124E20F10
:10061000F11D15912491E12FF22FEE0FFF1F349160
:10062000831708F08827482F31963196E40FF11D83
:1006300094910F93092FD2DDE0DD0F91D0CF53328B
:10064000F1F0543429F1533419F0523419F0C7CF72
:100650000C94AD026A9500EC060F0F93002FB3DDEA
:10066000CCDD0F910F9300E2B9DDC7DD0F9100ECF7
:10067000060F0F93002FA7DDC0DD0F91B0CFC0E0B4
:10068000D2E0C60FD11D9883639577278827A7CF1F
:10069000E0E0F2E0C2E1DCE0162F219129931A9507
:1006A000E1F70F9301E08FDDA8DD0F910F9302E0DA
:1006B0008ADDA3DD0F91EF93FF930F93EAE1F7E05B
:1006C0000591003031F00F93002F88DD96DD0F91FA
:1006D000F7CF0F91FF91EF910F9300EC74DD8DDD5B
:1006E0000F9104DEE3DEC2DC5434E9F7DF91CF91F1
:1006F000FF91EF91BF91AF919F918F917F916F91FA
:100700005F914F913F912F911F910F910895456EE9
:10071000746572204E616D653A00596F7572204E96
:10072000756D6265722049733A004E657874205089
:10073000617469656E743A00A403A703AA03AD034C
:10074000B003B303B603B9030300414243000300FF
:100750004445460003004748490003004A4B4C000B
:1007600003004D4E4F0004005051525303005455A6
:10077000560004005758595A42DE78DC5134E1F7EC
:06078000ECDEFACFFFCF12
:00000001FF
