:020000020000FC
:020000002FC00F
:10005C000C9433000FEF07B929C00F930FB70F9310
:10006C00DF93CF939F938F93C0E0D2E089919881D7
:10007C00019698838A93883E89F4933079F410958D
:10008C0018B93FD0C0E0D2E0002709930883C2E042
:10009C00D2E089919881019698838A938F919F9150
:1000AC00CF91DF910F910FBF0F91189562D033272D
:1000BC001FEF18B91FE0C0E0D2E0002709930883B6
:1000CC00C2E0D2E000270993088300E004BD03E0FE
:1000DC0005BD01E000936E00789400270AB90FEF7C
:1000EC000BB909B10072003009F0FBCF01E46DD0FF
:1000FC007BD0C2E0D2E089919881019698838A9353
:10010C00F0CFDF93CF939F938F93C2E0D2E089918E
:10011C00988101E04FD068D002E04CD065D0392FE7
:10012C0075D0382F73D08F919F91CF91DF91089517
:10013C008F939F939FE08CE90197F1F79F918F919B
:10014C000895F6DFF5DFF4DFF3DFF2DF0895F9DF72
:10015C00F8DFF7DFF6DFF5DF0895F9DFF8DFF7DF1B
:10016C00F6DFF5DF0895F9DFF8DFF7DFF6DFF5DF0F
:10017C0008950FEF00BB01B9002701BB02B908E3DA
:10018C0019D032D0DEDF08E315D02ED0D1DF08E352
:10019C0011D02AD008E30ED027D008E00BD024D001
:1001AC0001E008D021D006E005D01ED00EE002D030
:1001BC001BD0089501BB0000169A0000000000003F
:1001CC001698000000000000089501BB179A00006B
:1001DC0000000000169A00000000000016980000B5
:1001EC0000000000179808950F93002700BB159A84
:1001FC000000169A0000000000000FB1169807FDD1
:10020C00F7CF15980FEF00BB0F9108950F931F9325
:10021C002F93DF93132F04E60AD00AE008D001E0F5
:10022C0006D000C0DF912F911F910F91089520E00F
:10023C00101732F0101B2395FBCFD0FD01D0089581
:0A024C00205D022FC2DFD0DF08950D
:00000001FF
