:020000020000FC
:020000002FC00F
:0200040046C0F4
:10005C000C945F00C0E0D2E0002709930883C2E053
:10006C00D2E000270993088300E004BD03E005BD3E
:10007C0001E000936E0002E0009369000DB3016093
:10008C000DBB789443C00F930FB70F93DF93CF93AF
:10009C009F938F93C2E0D2E08991988101969883C7
:1000AC008A938F919F91CF91DF910F910FBF0F91F9
:1000BC0018950F930FB70F93DF93CF939F938F9355
:1000CC00C0E0D2E089919881019698838A93883E0A
:1000DC00A9F4933099F4309538B901E098D0B1D0A7
:1000EC0002E095D0AED01CD0C0E0D2E0002709933E
:1000FC000883C2E0D2E00027099308838F919F9177
:10010C00CF91DF910F910FBF0F9118950FEF07B99A
:10011C0035E538B95BD000270AB90FEF0BB9FFCF23
:10012C00DF93CF939F938F93AF93BF932F93AA2774
:10013C00BB272227C2E0D2E08991988196958795BA
:10014C0096958795992311F48A3018F00A97119691
:10015C00F9CF8F932395CD01BB27AA279923B1F70C
:10016C008A3008F0F3CF8F932395203039F08F919C
:10017C002A95805D082F56D064D0F7CF2F91BF9170
:10018C00AF918F919F91CF91DF918F939F939FE030
:10019C008CE90197F1F79F918F910895F6DFF5DFC8
:1001AC00F4DFF3DFF2DF0895F9DFF8DFF7DFF6DFD6
:1001BC00F5DF0895F9DFF8DFF7DFF6DFF5DF0895F7
:1001CC00F9DFF8DFF7DFF6DFF5DF08950FEF00BB9F
:1001DC0001B9002701BB02B908E319D032D0DEDF28
:1001EC0008E315D02ED0D1DF08E311D02AD008E3D4
:1001FC000ED027D008E00BD024D001E008D021D0BD
:10020C0006E005D01ED00EE002D01BD0089501BB35
:10021C000000169A00000000000016980000000074
:10022C000000089501BB179A000000000000169A08
:10023C000000000000001698000000000000179855
:10024C0008950F93002700BB159A0000169A000022
:10025C00000000000FB1169807FDF7CF15980FEFAF
:10026C0000BB0F9108950F932F9304E607D00AE07B
:10027C0005D001E003D02F910F91089520E01017C5
:10028C001AF0101B2395FBCF205D022FCBDFD9DF9B
:0A029C00089501D008951017089589
:00000001FF
