:020000020000FC
:020000002FC00F
:10005C000C9433000FEF07B927C00F930FB70F9312
:10006C00DF93CF939F938F93C0E0D2E089919881D7
:10007C000196883E79F4933069F4109518B9C0E074
:10008C00D2E00027099308839DD002E47AD088D06F
:10009C00222702C098838A938F919F91CF91DF91F1
:1000AC000F910FBF0F91189540D01FEF18B91FE09B
:1000BC00C0E0D2E000270993088300E004BD03E010
:1000CC0005BD01E000936E007894222700270AB941
:1000DC000FEF0BB909B10072003009F0FBCF01E44E
:1000EC0050D05ED02395F6CF8F939F939FE08CE9F1
:1000FC000197F1F79F918F910895F6DFF5DFF4DF0B
:10010C00F3DFF2DF0895F9DFF8DFF7DFF6DFF5DF75
:10011C000895F9DFF8DFF7DFF6DFF5DF0895F9DF93
:10012C00F8DFF7DFF6DFF5DF08950FEF00BB01B95D
:10013C00002701BB02B908E319D032D0DEDF08E397
:10014C0015D02ED0D1DF08E311D02AD008E30ED081
:10015C0027D008E00BD024D001E008D021D006E055
:10016C0005D01ED00EE002D01BD0089501BB0000BC
:10017C00169A000000000000169800000000000015
:10018C00089501BB179A000000000000169A0000A9
:10019C000000000016980000000000001798089559
:1001AC000F93002700BB159A0000169A0000000060
:1001BC0000000FB1169807FDF7CF15980FEF00BB95
:1001CC000F91089501E0D2DFEBDF0F931F932F9374
:1001DC00DF93122F04E60AD00AE008D001E006D023
:1001EC0000C0DF912F911F910F91089520E01017FF
:1001FC001AF0101B2395FBCF203081F4D0FD01D0D9
:10020C0008952A302CF4205D022FBBDFC9DF08953E
:10021C002A502F5B022FB5DFC3DF0895D1E0EECF5C
:00000001FF
